{
  "_format": "hh-sol-artifact-1",
  "contractName": "MockOracle",
  "sourceName": "contracts/mocker/MockOracle.sol",
  "abi": [
    {
      "inputs": [],
      "name": "PRICE_PRECISION",
      "outputs": [
        {
          "internalType": "uint256",
          "name": "",
          "type": "uint256"
        }
      ],
      "stateMutability": "view",
      "type": "function"
    },
    {
      "inputs": [
        {
          "internalType": "address",
          "name": "_token",
          "type": "address"
        },
        {
          "internalType": "bool",
          "name": "_maximise",
          "type": "bool"
        }
      ],
      "name": "getPrice",
      "outputs": [
        {
          "internalType": "uint256",
          "name": "",
          "type": "uint256"
        }
      ],
      "stateMutability": "view",
      "type": "function"
    },
    {
      "inputs": [
        {
          "internalType": "address",
          "name": "token",
          "type": "address"
        },
        {
          "internalType": "uint256",
          "name": "price",
          "type": "uint256"
        }
      ],
      "name": "setPrice",
      "outputs": [],
      "stateMutability": "nonpayable",
      "type": "function"
    },
    {
      "inputs": [
        {
          "internalType": "address[]",
          "name": "_tokens",
          "type": "address[]"
        },
        {
          "internalType": "uint256[]",
          "name": "_prices",
          "type": "uint256[]"
        },
        {
          "internalType": "uint256",
          "name": "_timestamp",
          "type": "uint256"
        }
      ],
      "name": "setPrices",
      "outputs": [],
      "stateMutability": "nonpayable",
      "type": "function"
    }
  ],
  "bytecode": "0x608060405234801561001057600080fd5b50610532806100206000396000f3fe608060405234801561001057600080fd5b506004361061004b5760003560e01c8062e4768b1461005057806376d6976014610065578063782661bc1461008a57806395082d251461009d575b600080fd5b61006361005e36600461026f565b6100b0565b005b610078610073366004610299565b61011b565b60405190815260200160405180910390f35b6100636100983660046103a9565b610187565b61007868327cb2734119d3b7a9601e1b81565b6001600160a01b0382166100df5760405162461bcd60e51b81526004016100d690610471565b60405180910390fd5b600081116100ff5760405162461bcd60e51b81526004016100d690610498565b6001600160a01b03909116600090815260208190526040902055565b6001600160a01b038216600090815260208190526040812054806101805760405162461bcd60e51b815260206004820152601c60248201527b1ddc9bdb99c81d1bdad95b881bdc881c1c9a58d9481b9bdd081cd95d60221b60448201526064016100d6565b9392505050565b60005b835181101561024d5760008482815181106101a7576101a76104bf565b6020026020010151905060008483815181106101c5576101c56104bf565b6020026020010151905060006001600160a01b0316826001600160a01b0316036102015760405162461bcd60e51b81526004016100d690610471565b600081116102215760405162461bcd60e51b81526004016100d690610498565b6001600160a01b0390911660009081526020819052604090205580610245816104d5565b91505061018a565b50505050565b80356001600160a01b038116811461026a57600080fd5b919050565b6000806040838503121561028257600080fd5b61028b83610253565b946020939093013593505050565b600080604083850312156102ac57600080fd5b6102b583610253565b9150602083013580151581146102ca57600080fd5b809150509250929050565b634e487b7160e01b600052604160045260246000fd5b604051601f8201601f191681016001600160401b0381118282101715610313576103136102d5565b604052919050565b60006001600160401b03821115610334576103346102d5565b5060051b60200190565b600082601f83011261034f57600080fd5b8135602061036461035f8361031b565b6102eb565b82815260059290921b8401810191818101908684111561038357600080fd5b8286015b8481101561039e5780358352918301918301610387565b509695505050505050565b6000806000606084860312156103be57600080fd5b83356001600160401b03808211156103d557600080fd5b818601915086601f8301126103e957600080fd5b813560206103f961035f8361031b565b82815260059290921b8401810191818101908a84111561041857600080fd5b948201945b8386101561043d5761042e86610253565b8252948201949082019061041d565b9750508701359250508082111561045357600080fd5b506104608682870161033e565b925050604084013590509250925092565b6020808252600d908201526c34b73b30b634b2103a37b5b2b760991b604082015260600190565b6020808252600d908201526c696e76616c696420707269636560981b604082015260600190565b634e487b7160e01b600052603260045260246000fd5b6000600182016104f557634e487b7160e01b600052601160045260246000fd5b506001019056fea2646970667358221220d9a7ba0a5ea51176290cb925cd2563e64cedbe0d5cad04515eb99733ac8e570264736f6c63430008110033",
  "linkReferences": {},
  "deployedLinkReferences": {}
}